{
  "contractName": "Integrity",
  "abi": [
    {
      "constant": true,
      "inputs": [
        {
          "name": "root1",
          "type": "bytes32"
        },
        {
          "name": "root2",
          "type": "bytes32"
        }
      ],
      "name": "compare",
      "outputs": [
        {
          "name": "",
          "type": "uint256"
        }
      ],
      "payable": false,
      "stateMutability": "view",
      "type": "function"
    }
  ],
  "bytecode": "0x608060405234801561001057600080fd5b5060f18061001f6000396000f300608060405260043610603f576000357c0100000000000000000000000000000000000000000000000000000000900463ffffffff16806328602ab2146044575b600080fd5b348015604f57600080fd5b50607e600480360381019080803560001916906020019092919080356000191690602001909291905050506094565b6040518082815260200191505060405180910390f35b600081600019168360001916141560b157600160008190555060ba565b60026000819055505b6000549050929150505600a165627a7a72305820927705675117f9eb70d06dd2a5a23cff9891acd90187ff4222ceac08981a2e910029",
  "source": "pragma solidity ^0.4.4;\ncontract Integrity {    \n  uint result;\n\n  function compare(bytes32 root1 , bytes32 root2) constant returns(uint){\n   \n    if(root1 == root2){\n      result=1;\n    }\n    else{\n      result=2;\n    }\n    return result;\n  }\n  \n}",
  "sourcePath": "/home/ydd/Documents/blockchain_workspace/test1/LoanDe-centralised/contracts/Integrity.sol",
  "compiler": {
    "name": "solc",
    "version": "0.4.23+commit.124ca40d.Emscripten.clang"
  },
  "schemaVersion": "2.0.0",
  "updatedAt": "2018-05-28T02:14:26.632Z"
}